:100000000C942A000C94D4000C94D4000C94D400CA
:100010000C94D4000C94D4000C94D4000C94D40010
:100020000C94D4000C94D4000C94D4000C94D40000
:100030000C94D4000C94D4000C94D4000C94D400F0
:100040000C94D4000C94D4000C94D4000C94D400E0
:100050000C94D40011241FBECFE5D8E0DEBFCDBF85
:0C0060000E9436000C94C900F894FFCFF9
:10006C0081B38F6181BB82B382BB8AB38E7F8ABB23
:10007C0087B1816087B986B1836986B986B180649E
:10008C0086B9349BFECF86B1806186B984B195B1B7
:10009C009C01275B31092F31310598F4949B04C0E6
:1000AC0082B38F7E82BB03C082B3806182BB2FE59B
:1000BC008AEE90E0215080409040E1F700C00000B3
:1000CC00DDCF9C01265831402F32310598F4939B9B
:1000DC0004C082B3877F82BB03C082B3886082BBBB
:1000EC002FE58AEE90E0215080409040E1F700C06F
:1000FC000000C4CF9C01215532402F32310598F4B9
:10010C00929B04C082B38B7F82BB03C082B384609A
:10011C0082BB2FE58AEE90E0215080409040E1F7C1
:10012C0000C00000ABCF9C0125513340213231057A
:10013C0098F4919B04C082B38D7F82BB03C082B3C1
:10014C00826082BB2FE58AEE90E021508040904087
:10015C00E1F700C0000092CF893E934008F48ECFA7
:10016C00909B04C082B38E7F82BB03C082B381603C
:10017C0082BB8FE59AEE20E0815090402040E1F761
:06018C0000C000007BCF63
:10019200EC010E94D9000E94D800CE010E94DA0030
:0601A200CE010E94D60010
:0401A8000C940000B3
:0401AC000E94340079
:0201B0000895B0
:0201B2000895AE
:0201B4000895AC
:00000001FF
